{
  "_format": "hh-sol-artifact-1",
  "contractName": "RestInChainNFT",
  "sourceName": "contracts/RestInChainNFT.sol",
  "abi": [
    {
      "inputs": [],
      "stateMutability": "nonpayable",
      "type": "constructor"
    },
    {
      "anonymous": false,
      "inputs": [
        {
          "indexed": true,
          "internalType": "address",
          "name": "owner",
          "type": "address"
        },
        {
          "indexed": true,
          "internalType": "address",
          "name": "approved",
          "type": "address"
        },
        {
          "indexed": true,
          "internalType": "uint256",
          "name": "tokenId",
          "type": "uint256"
        }
      ],
      "name": "Approval",
      "type": "event"
    },
    {
      "anonymous": false,
      "inputs": [
        {
          "indexed": true,
          "internalType": "address",
          "name": "owner",
          "type": "address"
        },
        {
          "indexed": true,
          "internalType": "address",
          "name": "operator",
          "type": "address"
        },
        {
          "indexed": false,
          "internalType": "bool",
          "name": "approved",
          "type": "bool"
        }
      ],
      "name": "ApprovalForAll",
      "type": "event"
    },
    {
      "anonymous": false,
      "inputs": [
        {
          "indexed": true,
          "internalType": "address",
          "name": "previousOwner",
          "type": "address"
        },
        {
          "indexed": true,
          "internalType": "address",
          "name": "newOwner",
          "type": "address"
        }
      ],
      "name": "OwnershipTransferred",
      "type": "event"
    },
    {
      "anonymous": false,
      "inputs": [
        {
          "indexed": true,
          "internalType": "address",
          "name": "from",
          "type": "address"
        },
        {
          "indexed": true,
          "internalType": "address",
          "name": "to",
          "type": "address"
        },
        {
          "indexed": true,
          "internalType": "uint256",
          "name": "tokenId",
          "type": "uint256"
        }
      ],
      "name": "Transfer",
      "type": "event"
    },
    {
      "inputs": [
        {
          "internalType": "address",
          "name": "to",
          "type": "address"
        },
        {
          "internalType": "uint256",
          "name": "tokenId",
          "type": "uint256"
        }
      ],
      "name": "approve",
      "outputs": [],
      "stateMutability": "nonpayable",
      "type": "function"
    },
    {
      "inputs": [
        {
          "internalType": "address",
          "name": "owner",
          "type": "address"
        }
      ],
      "name": "balanceOf",
      "outputs": [
        {
          "internalType": "uint256",
          "name": "",
          "type": "uint256"
        }
      ],
      "stateMutability": "view",
      "type": "function"
    },
    {
      "inputs": [
        {
          "internalType": "string",
          "name": "title",
          "type": "string"
        },
        {
          "internalType": "string",
          "name": "subtitle",
          "type": "string"
        },
        {
          "internalType": "string[]",
          "name": "descriptions",
          "type": "string[]"
        }
      ],
      "name": "buyNFT",
      "outputs": [],
      "stateMutability": "payable",
      "type": "function"
    },
    {
      "inputs": [
        {
          "internalType": "address",
          "name": "owner",
          "type": "address"
        }
      ],
      "name": "getAllNFT",
      "outputs": [
        {
          "internalType": "uint256[]",
          "name": "",
          "type": "uint256[]"
        }
      ],
      "stateMutability": "view",
      "type": "function"
    },
    {
      "inputs": [
        {
          "internalType": "uint256",
          "name": "tokenId",
          "type": "uint256"
        }
      ],
      "name": "getApproved",
      "outputs": [
        {
          "internalType": "address",
          "name": "",
          "type": "address"
        }
      ],
      "stateMutability": "view",
      "type": "function"
    },
    {
      "inputs": [
        {
          "internalType": "uint256",
          "name": "page",
          "type": "uint256"
        },
        {
          "internalType": "uint256",
          "name": "offset",
          "type": "uint256"
        }
      ],
      "name": "getYardNFTByPage",
      "outputs": [
        {
          "internalType": "uint256[]",
          "name": "",
          "type": "uint256[]"
        }
      ],
      "stateMutability": "view",
      "type": "function"
    },
    {
      "inputs": [
        {
          "internalType": "string[]",
          "name": "initNames",
          "type": "string[]"
        },
        {
          "internalType": "string[]",
          "name": "initYears",
          "type": "string[]"
        },
        {
          "internalType": "string[][]",
          "name": "initMemories",
          "type": "string[][]"
        }
      ],
      "name": "initPlaceHolderNFTs",
      "outputs": [],
      "stateMutability": "nonpayable",
      "type": "function"
    },
    {
      "inputs": [
        {
          "internalType": "address",
          "name": "owner",
          "type": "address"
        },
        {
          "internalType": "address",
          "name": "operator",
          "type": "address"
        }
      ],
      "name": "isApprovedForAll",
      "outputs": [
        {
          "internalType": "bool",
          "name": "",
          "type": "bool"
        }
      ],
      "stateMutability": "view",
      "type": "function"
    },
    {
      "inputs": [
        {
          "internalType": "string",
          "name": "title",
          "type": "string"
        },
        {
          "internalType": "string",
          "name": "subtitle",
          "type": "string"
        },
        {
          "internalType": "string[]",
          "name": "descriptions",
          "type": "string[]"
        }
      ],
      "name": "mintSampleNFT",
      "outputs": [],
      "stateMutability": "nonpayable",
      "type": "function"
    },
    {
      "inputs": [],
      "name": "name",
      "outputs": [
        {
          "internalType": "string",
          "name": "",
          "type": "string"
        }
      ],
      "stateMutability": "view",
      "type": "function"
    },
    {
      "inputs": [],
      "name": "owner",
      "outputs": [
        {
          "internalType": "address",
          "name": "",
          "type": "address"
        }
      ],
      "stateMutability": "view",
      "type": "function"
    },
    {
      "inputs": [
        {
          "internalType": "uint256",
          "name": "tokenId",
          "type": "uint256"
        }
      ],
      "name": "ownerOf",
      "outputs": [
        {
          "internalType": "address",
          "name": "",
          "type": "address"
        }
      ],
      "stateMutability": "view",
      "type": "function"
    },
    {
      "inputs": [],
      "name": "price",
      "outputs": [
        {
          "internalType": "uint256",
          "name": "",
          "type": "uint256"
        }
      ],
      "stateMutability": "view",
      "type": "function"
    },
    {
      "inputs": [],
      "name": "renounceOwnership",
      "outputs": [],
      "stateMutability": "nonpayable",
      "type": "function"
    },
    {
      "inputs": [
        {
          "internalType": "address",
          "name": "from",
          "type": "address"
        },
        {
          "internalType": "address",
          "name": "to",
          "type": "address"
        },
        {
          "internalType": "uint256",
          "name": "tokenId",
          "type": "uint256"
        }
      ],
      "name": "safeTransferFrom",
      "outputs": [],
      "stateMutability": "nonpayable",
      "type": "function"
    },
    {
      "inputs": [
        {
          "internalType": "address",
          "name": "from",
          "type": "address"
        },
        {
          "internalType": "address",
          "name": "to",
          "type": "address"
        },
        {
          "internalType": "uint256",
          "name": "tokenId",
          "type": "uint256"
        },
        {
          "internalType": "bytes",
          "name": "_data",
          "type": "bytes"
        }
      ],
      "name": "safeTransferFrom",
      "outputs": [],
      "stateMutability": "nonpayable",
      "type": "function"
    },
    {
      "inputs": [
        {
          "internalType": "uint256",
          "name": "tokenId",
          "type": "uint256"
        }
      ],
      "name": "sendToYard",
      "outputs": [],
      "stateMutability": "nonpayable",
      "type": "function"
    },
    {
      "inputs": [
        {
          "internalType": "address",
          "name": "operator",
          "type": "address"
        },
        {
          "internalType": "bool",
          "name": "approved",
          "type": "bool"
        }
      ],
      "name": "setApprovalForAll",
      "outputs": [],
      "stateMutability": "nonpayable",
      "type": "function"
    },
    {
      "inputs": [
        {
          "internalType": "uint256",
          "name": "newPrice",
          "type": "uint256"
        }
      ],
      "name": "setMinPrice",
      "outputs": [],
      "stateMutability": "nonpayable",
      "type": "function"
    },
    {
      "inputs": [
        {
          "internalType": "bytes4",
          "name": "interfaceId",
          "type": "bytes4"
        }
      ],
      "name": "supportsInterface",
      "outputs": [
        {
          "internalType": "bool",
          "name": "",
          "type": "bool"
        }
      ],
      "stateMutability": "view",
      "type": "function"
    },
    {
      "inputs": [],
      "name": "symbol",
      "outputs": [
        {
          "internalType": "string",
          "name": "",
          "type": "string"
        }
      ],
      "stateMutability": "view",
      "type": "function"
    },
    {
      "inputs": [
        {
          "internalType": "uint256",
          "name": "tokenId",
          "type": "uint256"
        }
      ],
      "name": "tokenURI",
      "outputs": [
        {
          "internalType": "string",
          "name": "",
          "type": "string"
        }
      ],
      "stateMutability": "view",
      "type": "function"
    },
    {
      "inputs": [
        {
          "internalType": "address",
          "name": "from",
          "type": "address"
        },
        {
          "internalType": "address",
          "name": "to",
          "type": "address"
        },
        {
          "internalType": "uint256",
          "name": "tokenId",
          "type": "uint256"
        }
      ],
      "name": "transferFrom",
      "outputs": [],
      "stateMutability": "nonpayable",
      "type": "function"
    },
    {
      "inputs": [
        {
          "internalType": "address",
          "name": "newOwner",
          "type": "address"
        }
      ],
      "name": "transferOwnership",
      "outputs": [],
      "stateMutability": "nonpayable",
      "type": "function"
    },
    {
      "inputs": [
        {
          "internalType": "address",
          "name": "to",
          "type": "address"
        },
        {
          "internalType": "uint256",
          "name": "tokenId",
          "type": "uint256"
        }
      ],
      "name": "transferToNewAddress",
      "outputs": [],
      "stateMutability": "nonpayable",
      "type": "function"
    },
    {
      "inputs": [
        {
          "internalType": "uint256",
          "name": "tokenId",
          "type": "uint256"
        },
        {
          "internalType": "string",
          "name": "title",
          "type": "string"
        },
        {
          "internalType": "string",
          "name": "subtitle",
          "type": "string"
        },
        {
          "internalType": "string[]",
          "name": "descriptions",
          "type": "string[]"
        }
      ],
      "name": "updateNFTData",
      "outputs": [],
      "stateMutability": "nonpayable",
      "type": "function"
    },
    {
      "inputs": [],
      "name": "withdrawFund",
      "outputs": [],
      "stateMutability": "nonpayable",
      "type": "function"
    }
  ],
  "bytecode": "0x608060405266038d7ea4c6800060095560405180610980016040528061095981526020016200635a6109599139600a908051906020019062000043929190620003e1565b506040518060c00160405280609d815260200162006d40609d9139600b908051906020019062000075929190620003e1565b506040518060c00160405280609d815260200162006ddd609d9139600c9080519060200190620000a7929190620003e1565b506040518060c00160405280608d815260200162006cb3608d9139600d9080519060200190620000d9929190620003e1565b506040518060400160405280600d81526020017f3c2f746578743e3c2f7376673e00000000000000000000000000000000000000815250600e908051906020019062000127929190620003e1565b503480156200013557600080fd5b506040518060400160405280600e81526020017f52657374496e436861696e4e46540000000000000000000000000000000000008152506040518060400160405280600e81526020017f52657374496e436861696e4e46540000000000000000000000000000000000008152508160009080519060200190620001ba929190620003e1565b508060019080519060200190620001d3929190620003e1565b505050620001f6620001ea6200024760201b60201c565b6200024f60201b60201c565b620002416040518060400160405280600e81526020017f52657374496e436861696e4e46540000000000000000000000000000000000008152506200031560201b6200289a1760201c565b620005be565b600033905090565b6000600760009054906101000a900473ffffffffffffffffffffffffffffffffffffffff16905081600760006101000a81548173ffffffffffffffffffffffffffffffffffffffff021916908373ffffffffffffffffffffffffffffffffffffffff1602179055508173ffffffffffffffffffffffffffffffffffffffff168173ffffffffffffffffffffffffffffffffffffffff167f8be0079c531659141344cd1fd0a4f28419497f9722a3daafe3b4186f6b6457e060405160405180910390a35050565b620003b5816040516024016200032c9190620004d2565b6040516020818303038152906040527f41304fac000000000000000000000000000000000000000000000000000000007bffffffffffffffffffffffffffffffffffffffffffffffffffffffff19166020820180517bffffffffffffffffffffffffffffffffffffffffffffffffffffffff8381831617835250505050620003b860201b60201c565b50565b60008151905060006a636f6e736f6c652e6c6f679050602083016000808483855afa5050505050565b828054620003ef9062000548565b90600052602060002090601f0160209004810192826200041357600085556200045f565b82601f106200042e57805160ff19168380011785556200045f565b828001600101855582156200045f579182015b828111156200045e57825182559160200191906001019062000441565b5b5090506200046e919062000472565b5090565b5b808211156200048d57600081600090555060010162000473565b5090565b60006200049e82620004f6565b620004aa818562000501565b9350620004bc81856020860162000512565b620004c781620005ad565b840191505092915050565b60006020820190508181036000830152620004ee818462000491565b905092915050565b600081519050919050565b600082825260208201905092915050565b60005b838110156200053257808201518184015260208101905062000515565b8381111562000542576000848401525b50505050565b600060028204905060018216806200056157607f821691505b602082108114156200057857620005776200057e565b5b50919050565b7f4e487b7100000000000000000000000000000000000000000000000000000000600052602260045260246000fd5b6000601f19601f8301169050919050565b615d8c80620005ce6000396000f3fe60806040526004361061019c5760003560e01c80638615c689116100ec578063ad2733001161008a578063c87b56dd11610064578063c87b56dd146105b1578063e07fa3c1146105ee578063e985e9c514610605578063f2fde38b146106425761019c565b8063ad27330014610522578063b88d4fde1461054b578063c1e698b9146105745761019c565b80639b9eca8d116100c65780639b9eca8d1461047c578063a035b1fe146104a5578063a22cb465146104d0578063a4c06b2e146104f95761019c565b80638615c689146103fd5780638da5cb5b1461042657806395d89b41146104515761019c565b806323b872dd116101595780636352211e116101335780636352211e1461035057806370a082311461038d578063715018a6146103ca578063776546c3146103e15761019c565b806323b872dd146102d557806342842e0e146102fe5780635ea8cd12146103275761019c565b806301ffc9a7146101a157806306fdde03146101de578063081812fc14610209578063095ea7b3146102465780631a97d18d1461026f5780631b8df0ee14610298575b600080fd5b3480156101ad57600080fd5b506101c860048036038101906101c39190614220565b61066b565b6040516101d59190614cee565b60405180910390f35b3480156101ea57600080fd5b506101f361074d565b6040516102009190614d09565b60405180910390f35b34801561021557600080fd5b50610230600480360381019061022b9190614309565b6107df565b60405161023d9190614c65565b60405180910390f35b34801561025257600080fd5b5061026d6004803603810190610268919061414d565b610864565b005b34801561027b57600080fd5b506102966004803603810190610291919061414d565b61097c565b005b3480156102a457600080fd5b506102bf60048036038101906102ba9190613fe2565b610993565b6040516102cc9190614ccc565b60405180910390f35b3480156102e157600080fd5b506102fc60048036038101906102f79190614047565b610a30565b005b34801561030a57600080fd5b5061032560048036038101906103209190614047565b610a9b565b005b34801561033357600080fd5b5061034e60048036038101906103499190614309565b610abb565b005b34801561035c57600080fd5b5061037760048036038101906103729190614309565b610b41565b6040516103849190614c65565b60405180910390f35b34801561039957600080fd5b506103b460048036038101906103af9190613fe2565b610bf3565b6040516103c19190614feb565b60405180910390f35b3480156103d657600080fd5b506103df610cab565b005b6103fb60048036038101906103f69190614272565b610d33565b005b34801561040957600080fd5b50610424600480360381019061041f9190614272565b611193565b005b34801561043257600080fd5b5061043b61162a565b6040516104489190614c65565b60405180910390f35b34801561045d57600080fd5b50610466611654565b6040516104739190614d09565b60405180910390f35b34801561048857600080fd5b506104a3600480360381019061049e9190614332565b6116e6565b005b3480156104b157600080fd5b506104ba611ac9565b6040516104c79190614feb565b60405180910390f35b3480156104dc57600080fd5b506104f760048036038101906104f29190614111565b611acf565b005b34801561050557600080fd5b50610520600480360381019061051b9190614189565b611ae5565b005b34801561052e57600080fd5b5061054960048036038101906105449190614309565b612077565b005b34801561055757600080fd5b50610572600480360381019061056d9190614096565b61208d565b005b34801561058057600080fd5b5061059b600480360381019061059691906143dd565b6120fa565b6040516105a89190614ccc565b60405180910390f35b3480156105bd57600080fd5b506105d860048036038101906105d39190614309565b6124ea565b6040516105e59190614d09565b60405180910390f35b3480156105fa57600080fd5b5061060361263c565b005b34801561061157600080fd5b5061062c6004803603810190610627919061400b565b61270e565b6040516106399190614cee565b60405180910390f35b34801561064e57600080fd5b5061066960048036038101906106649190613fe2565b6127a2565b005b60007f80ac58cd000000000000000000000000000000000000000000000000000000007bffffffffffffffffffffffffffffffffffffffffffffffffffffffff1916827bffffffffffffffffffffffffffffffffffffffffffffffffffffffff1916148061073657507f5b5e139f000000000000000000000000000000000000000000000000000000007bffffffffffffffffffffffffffffffffffffffffffffffffffffffff1916827bffffffffffffffffffffffffffffffffffffffffffffffffffffffff1916145b80610746575061074582612933565b5b9050919050565b60606000805461075c90615341565b80601f016020809104026020016040519081016040528092919081815260200182805461078890615341565b80156107d55780601f106107aa576101008083540402835291602001916107d5565b820191906000526020600020905b8154815290600101906020018083116107b857829003601f168201915b5050505050905090565b60006107ea8261299d565b610829576040517f08c379a000000000000000000000000000000000000000000000000000000000815260040161082090614f2b565b60405180910390fd5b6004600083815260200190815260200160002060009054906101000a900473ffffffffffffffffffffffffffffffffffffffff169050919050565b600061086f82610b41565b90508073ffffffffffffffffffffffffffffffffffffffff168373ffffffffffffffffffffffffffffffffffffffff1614156108e0576040517f08c379a00000000000000000000000000000000000000000000000000000000081526004016108d790614f8b565b60405180910390fd5b8073ffffffffffffffffffffffffffffffffffffffff166108ff612a09565b73ffffffffffffffffffffffffffffffffffffffff16148061092e575061092d81610928612a09565b61270e565b5b61096d576040517f08c379a000000000000000000000000000000000000000000000000000000000815260040161096490614e4b565b60405180910390fd5b6109778383612a11565b505050565b61098f61098882610b41565b8383610a9b565b5050565b60606000600f60008473ffffffffffffffffffffffffffffffffffffffff1673ffffffffffffffffffffffffffffffffffffffff168152602001908152602001600020805480602002602001604051908101604052809291908181526020018280548015610a2057602002820191906000526020600020905b815481526020019060010190808311610a0c575b5050505050905080915050919050565b610a41610a3b612a09565b82612aca565b610a80576040517f08c379a0000000000000000000000000000000000000000000000000000000008152600401610a7790614fab565b60405180910390fd5b610a8b838383612ba8565b610a96838383612e0f565b505050565b610ab68383836040518060200160405280600081525061208d565b505050565b610ac3612a09565b73ffffffffffffffffffffffffffffffffffffffff16610ae161162a565b73ffffffffffffffffffffffffffffffffffffffff1614610b37576040517f08c379a0000000000000000000000000000000000000000000000000000000008152600401610b2e90614f4b565b60405180910390fd5b8060098190555050565b6000806002600084815260200190815260200160002060009054906101000a900473ffffffffffffffffffffffffffffffffffffffff169050600073ffffffffffffffffffffffffffffffffffffffff168173ffffffffffffffffffffffffffffffffffffffff161415610bea576040517f08c379a0000000000000000000000000000000000000000000000000000000008152600401610be190614e8b565b60405180910390fd5b80915050919050565b60008073ffffffffffffffffffffffffffffffffffffffff168273ffffffffffffffffffffffffffffffffffffffff161415610c64576040517f08c379a0000000000000000000000000000000000000000000000000000000008152600401610c5b90614e6b565b60405180910390fd5b600360008373ffffffffffffffffffffffffffffffffffffffff1673ffffffffffffffffffffffffffffffffffffffff168152602001908152602001600020549050919050565b610cb3612a09565b73ffffffffffffffffffffffffffffffffffffffff16610cd161162a565b73ffffffffffffffffffffffffffffffffffffffff1614610d27576040517f08c379a0000000000000000000000000000000000000000000000000000000008152600401610d1e90614f4b565b60405180910390fd5b610d31600061314a565b565b600954341015610d78576040517f08c379a0000000000000000000000000000000000000000000000000000000008152600401610d6f90614d2b565b60405180910390fd5b601283511115610dbd576040517f08c379a0000000000000000000000000000000000000000000000000000000008152600401610db490614fcb565b60405180910390fd5b602482511115610e02576040517f08c379a0000000000000000000000000000000000000000000000000000000008152600401610df990614e2b565b60405180910390fd5b600481511115610e47576040517f08c379a0000000000000000000000000000000000000000000000000000000008152600401610e3e90614ecb565b60405180910390fd5b6000604051806020016040528060008152509050600060405180602001604052806000815250905060005b835181101561104e57601e848281518110610eb6577f4e487b7100000000000000000000000000000000000000000000000000000000600052603260045260246000fd5b6020026020010151511115610f00576040517f08c379a0000000000000000000000000000000000000000000000000000000008152600401610ef790614ecb565b60405180910390fd5b6000811415610f725782848281518110610f43577f4e487b7100000000000000000000000000000000000000000000000000000000600052603260045260246000fd5b6020026020010151604051602001610f5c929190614ace565b6040516020818303038152906040529250610fd7565b82848281518110610fac577f4e487b7100000000000000000000000000000000000000000000000000000000600052603260045260246000fd5b6020026020010151604051602001610fc5929190614a94565b60405160208183030381529060405292505b81848281518110611011577f4e487b7100000000000000000000000000000000000000000000000000000000600052603260045260246000fd5b602002602001015160405160200161102a929190614b08565b60405160208183030381529060405291508080611046906153a4565b915050610e72565b50600061105b6008613210565b905060006110688261321e565b90506000600a88600b89600c89600d88600e60405160200161109299989796959493929190614b37565b604051602081830303815290604052905060006110dd836110b2846133cb565b8b8b896040516020016110c9959493929190614bb6565b6040516020818303038152906040526133cb565b90506000816040516020016110f29190614c43565b604051602081830303815290604052905061110d3386613555565b6111178582613573565b600f60003373ffffffffffffffffffffffffffffffffffffffff1673ffffffffffffffffffffffffffffffffffffffff16815260200190815260200160002085908060018154018082558091505060019003906000526020600020016000909190919091505561118760086135e7565b50505050505050505050565b61119b612a09565b73ffffffffffffffffffffffffffffffffffffffff166111b961162a565b73ffffffffffffffffffffffffffffffffffffffff161461120f576040517f08c379a000000000000000000000000000000000000000000000000000000000815260040161120690614f4b565b60405180910390fd5b601283511115611254576040517f08c379a000000000000000000000000000000000000000000000000000000000815260040161124b90614fcb565b60405180910390fd5b602482511115611299576040517f08c379a000000000000000000000000000000000000000000000000000000000815260040161129090614e2b565b60405180910390fd5b6004815111156112de576040517f08c379a00000000000000000000000000000000000000000000000000000000081526004016112d590614ecb565b60405180910390fd5b6000604051806020016040528060008152509050600060405180602001604052806000815250905060005b83518110156114e557601e84828151811061134d577f4e487b7100000000000000000000000000000000000000000000000000000000600052603260045260246000fd5b6020026020010151511115611397576040517f08c379a000000000000000000000000000000000000000000000000000000000815260040161138e90614ecb565b60405180910390fd5b600081141561140957828482815181106113da577f4e487b7100000000000000000000000000000000000000000000000000000000600052603260045260246000fd5b60200260200101516040516020016113f3929190614ace565b604051602081830303815290604052925061146e565b82848281518110611443577f4e487b7100000000000000000000000000000000000000000000000000000000600052603260045260246000fd5b602002602001015160405160200161145c929190614a94565b60405160208183030381529060405292505b818482815181106114a8577f4e487b7100000000000000000000000000000000000000000000000000000000600052603260045260246000fd5b60200260200101516040516020016114c1929190614b08565b604051602081830303815290604052915080806114dd906153a4565b915050611309565b5060006114f26008613210565b905060006114ff8261321e565b90506000600a88600b89600c89600d88600e60405160200161152999989796959493929190614b37565b6040516020818303038152906040529050600061157483611549846133cb565b8b8b89604051602001611560959493929190614bb6565b6040516020818303038152906040526133cb565b90506000816040516020016115899190614c43565b60405160208183030381529060405290506115a43386613555565b6115ae8582613573565b600f60003373ffffffffffffffffffffffffffffffffffffffff1673ffffffffffffffffffffffffffffffffffffffff16815260200190815260200160002085908060018154018082558091505060019003906000526020600020016000909190919091505561161e60086135e7565b50505050505050505050565b6000600760009054906101000a900473ffffffffffffffffffffffffffffffffffffffff16905090565b60606001805461166390615341565b80601f016020809104026020016040519081016040528092919081815260200182805461168f90615341565b80156116dc5780601f106116b1576101008083540402835291602001916116dc565b820191906000526020600020905b8154815290600101906020018083116116bf57829003601f168201915b5050505050905090565b6116f76116f1612a09565b85612aca565b611736576040517f08c379a000000000000000000000000000000000000000000000000000000000815260040161172d90614fab565b60405180910390fd5b60128351111561177b576040517f08c379a000000000000000000000000000000000000000000000000000000000815260040161177290614fcb565b60405180910390fd5b6024825111156117c0576040517f08c379a00000000000000000000000000000000000000000000000000000000081526004016117b790614e2b565b60405180910390fd5b600481511115611805576040517f08c379a00000000000000000000000000000000000000000000000000000000081526004016117fc90614ecb565b60405180910390fd5b6000604051806020016040528060008152509050600060405180602001604052806000815250905060005b8351811015611a0c57601e848281518110611874577f4e487b7100000000000000000000000000000000000000000000000000000000600052603260045260246000fd5b60200260200101515111156118be576040517f08c379a00000000000000000000000000000000000000000000000000000000081526004016118b590614ecb565b60405180910390fd5b60008114156119305782848281518110611901577f4e487b7100000000000000000000000000000000000000000000000000000000600052603260045260246000fd5b602002602001015160405160200161191a929190614ace565b6040516020818303038152906040529250611995565b8284828151811061196a577f4e487b7100000000000000000000000000000000000000000000000000000000600052603260045260246000fd5b6020026020010151604051602001611983929190614a94565b60405160208183030381529060405292505b818482815181106119cf577f4e487b7100000000000000000000000000000000000000000000000000000000600052603260045260246000fd5b60200260200101516040516020016119e8929190614b08565b60405160208183030381529060405291508080611a04906153a4565b915050611830565b506000611a188761321e565b90506000600a87600b88600c88600d88600e604051602001611a4299989796959493929190614b37565b60405160208183030381529060405290506000611a8d83611a62846133cb565b8a8a88604051602001611a79959493929190614bb6565b6040516020818303038152906040526133cb565b9050600081604051602001611aa29190614c43565b6040516020818303038152906040529050611abd8a82613573565b50505050505050505050565b60095481565b611ae1611ada612a09565b83836135fd565b5050565b611aed612a09565b73ffffffffffffffffffffffffffffffffffffffff16611b0b61162a565b73ffffffffffffffffffffffffffffffffffffffff1614611b61576040517f08c379a0000000000000000000000000000000000000000000000000000000008152600401611b5890614f4b565b60405180910390fd5b60005b8351811015612071576000848281518110611ba8577f4e487b7100000000000000000000000000000000000000000000000000000000600052603260045260246000fd5b602002602001015190506000848381518110611bed577f4e487b7100000000000000000000000000000000000000000000000000000000600052603260045260246000fd5b602002602001015190506000848481518110611c32577f4e487b7100000000000000000000000000000000000000000000000000000000600052603260045260246000fd5b60200260200101519050601283511115611c81576040517f08c379a0000000000000000000000000000000000000000000000000000000008152600401611c7890614fcb565b60405180910390fd5b602482511115611cc6576040517f08c379a0000000000000000000000000000000000000000000000000000000008152600401611cbd90614e2b565b60405180910390fd5b600481511115611d0b576040517f08c379a0000000000000000000000000000000000000000000000000000000008152600401611d0290614ecb565b60405180910390fd5b6000604051806020016040528060008152509050600060405180602001604052806000815250905060005b8351811015611f1257601e848281518110611d7a577f4e487b7100000000000000000000000000000000000000000000000000000000600052603260045260246000fd5b6020026020010151511115611dc4576040517f08c379a0000000000000000000000000000000000000000000000000000000008152600401611dbb90614ecb565b60405180910390fd5b6000811415611e365782848281518110611e07577f4e487b7100000000000000000000000000000000000000000000000000000000600052603260045260246000fd5b6020026020010151604051602001611e20929190614ace565b6040516020818303038152906040529250611e9b565b82848281518110611e70577f4e487b7100000000000000000000000000000000000000000000000000000000600052603260045260246000fd5b6020026020010151604051602001611e89929190614a94565b60405160208183030381529060405292505b81848281518110611ed5577f4e487b7100000000000000000000000000000000000000000000000000000000600052603260045260246000fd5b6020026020010151604051602001611eee929190614b08565b60405160208183030381529060405291508080611f0a906153a4565b915050611d36565b506000611f1f6008613210565b90506000611f2c8261321e565b90506000600a88600b89600c89600d88600e604051602001611f5699989796959493929190614b37565b60405160208183030381529060405290506000611fa183611f76846133cb565b8b8b89604051602001611f8d959493929190614bb6565b6040516020818303038152906040526133cb565b9050600081604051602001611fb69190614c43565b6040516020818303038152906040529050611fd13386613555565b611fdb8582613573565b600f60003373ffffffffffffffffffffffffffffffffffffffff1673ffffffffffffffffffffffffffffffffffffffff16815260200190815260200160002085908060018154018082558091505060019003906000526020600020016000909190919091505561204b60086135e7565b61205485612077565b505050505050505050508080612069906153a4565b915050611b64565b50505050565b61208a61208382610b41565b3083610a30565b50565b61209e612098612a09565b83612aca565b6120dd576040517f08c379a00000000000000000000000000000000000000000000000000000000081526004016120d490614fab565b60405180910390fd5b6120e98484848461376a565b6120f4848484612e0f565b50505050565b606060008083600f60003073ffffffffffffffffffffffffffffffffffffffff1673ffffffffffffffffffffffffffffffffffffffff1681526020019081526020016000208054905061214d91906153ed565b1461215957600161215c565b60005b60ff1683600f60003073ffffffffffffffffffffffffffffffffffffffff1673ffffffffffffffffffffffffffffffffffffffff168152602001908152602001600020805490506121ad91906151cc565b6121b79190615176565b9050808411806121c8575060008411155b1561224a5760008067ffffffffffffffff81111561220f577f4e487b7100000000000000000000000000000000000000000000000000000000600052604160045260246000fd5b60405190808252806020026020018201604052801561223d5781602001602082028036833780820191505090505b50905080925050506124e4565b60008360018661225a9190615257565b61226491906151fd565b9050600084826122749190615176565b9050600f60003073ffffffffffffffffffffffffffffffffffffffff1673ffffffffffffffffffffffffffffffffffffffff168152602001908152602001600020805490508110156122c6578061230a565b600f60003073ffffffffffffffffffffffffffffffffffffffff1673ffffffffffffffffffffffffffffffffffffffff168152602001908152602001600020805490505b90506000828261231a9190615257565b67ffffffffffffffff811115612359577f4e487b7100000000000000000000000000000000000000000000000000000000600052604160045260246000fd5b6040519080825280602002602001820160405280156123875781602001602082028036833780820191505090505b5090506000808490505b838110156124da57600f60003073ffffffffffffffffffffffffffffffffffffffff1673ffffffffffffffffffffffffffffffffffffffff168152602001908152602001600020600182600f60003073ffffffffffffffffffffffffffffffffffffffff1673ffffffffffffffffffffffffffffffffffffffff168152602001908152602001600020805490506124289190615257565b6124329190615257565b81548110612469577f4e487b7100000000000000000000000000000000000000000000000000000000600052603260045260246000fd5b90600052602060002001548383815181106124ad577f4e487b7100000000000000000000000000000000000000000000000000000000600052603260045260246000fd5b60200260200101818152505081806124c4906153a4565b92505080806124d2906153a4565b915050612391565b5081955050505050505b92915050565b60606124f58261299d565b612534576040517f08c379a000000000000000000000000000000000000000000000000000000000815260040161252b90614f0b565b60405180910390fd5b600060066000848152602001908152602001600020805461255490615341565b80601f016020809104026020016040519081016040528092919081815260200182805461258090615341565b80156125cd5780601f106125a2576101008083540402835291602001916125cd565b820191906000526020600020905b8154815290600101906020018083116125b057829003601f168201915b5050505050905060006125de6137c6565b90506000815114156125f4578192505050612637565b600082511115612629578082604051602001612611929190614a70565b60405160208183030381529060405292505050612637565b612632846137dd565b925050505b919050565b612644612a09565b73ffffffffffffffffffffffffffffffffffffffff1661266261162a565b73ffffffffffffffffffffffffffffffffffffffff16146126b8576040517f08c379a00000000000000000000000000000000000000000000000000000000081526004016126af90614f4b565b60405180910390fd5b60006126c261162a565b90508073ffffffffffffffffffffffffffffffffffffffff166108fc479081150290604051600060405180830381858888f1935050505015801561270a573d6000803e3d6000fd5b5050565b6000600560008473ffffffffffffffffffffffffffffffffffffffff1673ffffffffffffffffffffffffffffffffffffffff16815260200190815260200160002060008373ffffffffffffffffffffffffffffffffffffffff1673ffffffffffffffffffffffffffffffffffffffff16815260200190815260200160002060009054906101000a900460ff16905092915050565b6127aa612a09565b73ffffffffffffffffffffffffffffffffffffffff166127c861162a565b73ffffffffffffffffffffffffffffffffffffffff161461281e576040517f08c379a000000000000000000000000000000000000000000000000000000000815260040161281590614f4b565b60405180910390fd5b600073ffffffffffffffffffffffffffffffffffffffff168173ffffffffffffffffffffffffffffffffffffffff16141561288e576040517f08c379a000000000000000000000000000000000000000000000000000000000815260040161288590614d6b565b60405180910390fd5b6128978161314a565b50565b612930816040516024016128ae9190614d09565b6040516020818303038152906040527f41304fac000000000000000000000000000000000000000000000000000000007bffffffffffffffffffffffffffffffffffffffffffffffffffffffff19166020820180517bffffffffffffffffffffffffffffffffffffffffffffffffffffffff8381831617835250505050613884565b50565b60007f01ffc9a7000000000000000000000000000000000000000000000000000000007bffffffffffffffffffffffffffffffffffffffffffffffffffffffff1916827bffffffffffffffffffffffffffffffffffffffffffffffffffffffff1916149050919050565b60008073ffffffffffffffffffffffffffffffffffffffff166002600084815260200190815260200160002060009054906101000a900473ffffffffffffffffffffffffffffffffffffffff1673ffffffffffffffffffffffffffffffffffffffff1614159050919050565b600033905090565b816004600083815260200190815260200160002060006101000a81548173ffffffffffffffffffffffffffffffffffffffff021916908373ffffffffffffffffffffffffffffffffffffffff160217905550808273ffffffffffffffffffffffffffffffffffffffff16612a8483610b41565b73ffffffffffffffffffffffffffffffffffffffff167f8c5be1e5ebec7d5bd14f71427d1e84f3dd0314c0f7b2291e5b200ac8c7c3b92560405160405180910390a45050565b6000612ad58261299d565b612b14576040517f08c379a0000000000000000000000000000000000000000000000000000000008152600401612b0b90614e0b565b60405180910390fd5b6000612b1f83610b41565b90508073ffffffffffffffffffffffffffffffffffffffff168473ffffffffffffffffffffffffffffffffffffffff161480612b8e57508373ffffffffffffffffffffffffffffffffffffffff16612b76846107df565b73ffffffffffffffffffffffffffffffffffffffff16145b80612b9f5750612b9e818561270e565b5b91505092915050565b8273ffffffffffffffffffffffffffffffffffffffff16612bc882610b41565b73ffffffffffffffffffffffffffffffffffffffff1614612c1e576040517f08c379a0000000000000000000000000000000000000000000000000000000008152600401612c1590614d8b565b60405180910390fd5b600073ffffffffffffffffffffffffffffffffffffffff168273ffffffffffffffffffffffffffffffffffffffff161415612c8e576040517f08c379a0000000000000000000000000000000000000000000000000000000008152600401612c8590614dcb565b60405180910390fd5b612c998383836138ad565b612ca4600082612a11565b6001600360008573ffffffffffffffffffffffffffffffffffffffff1673ffffffffffffffffffffffffffffffffffffffff1681526020019081526020016000206000828254612cf49190615257565b925050819055506001600360008473ffffffffffffffffffffffffffffffffffffffff1673ffffffffffffffffffffffffffffffffffffffff1681526020019081526020016000206000828254612d4b9190615176565b92505081905550816002600083815260200190815260200160002060006101000a81548173ffffffffffffffffffffffffffffffffffffffff021916908373ffffffffffffffffffffffffffffffffffffffff160217905550808273ffffffffffffffffffffffffffffffffffffffff168473ffffffffffffffffffffffffffffffffffffffff167fddf252ad1be2c89b69c2b068fc378daa952ba7f163c4a11628f55a4df523b3ef60405160405180910390a4612e0a8383836138b2565b505050565b6000805b600f60008673ffffffffffffffffffffffffffffffffffffffff1673ffffffffffffffffffffffffffffffffffffffff16815260200190815260200160002080549050811015612efd57600f60008673ffffffffffffffffffffffffffffffffffffffff1673ffffffffffffffffffffffffffffffffffffffff1681526020019081526020016000208181548110612ed4577f4e487b7100000000000000000000000000000000000000000000000000000000600052603260045260246000fd5b9060005260206000200154831415612eea578091505b8080612ef5906153a4565b915050612e13565b50600f60008573ffffffffffffffffffffffffffffffffffffffff1673ffffffffffffffffffffffffffffffffffffffff1681526020019081526020016000206001600f60008773ffffffffffffffffffffffffffffffffffffffff1673ffffffffffffffffffffffffffffffffffffffff16815260200190815260200160002080549050612f8c9190615257565b81548110612fc3577f4e487b7100000000000000000000000000000000000000000000000000000000600052603260045260246000fd5b9060005260206000200154600f60008673ffffffffffffffffffffffffffffffffffffffff1673ffffffffffffffffffffffffffffffffffffffff1681526020019081526020016000208281548110613045577f4e487b7100000000000000000000000000000000000000000000000000000000600052603260045260246000fd5b9060005260206000200181905550600f60008573ffffffffffffffffffffffffffffffffffffffff1673ffffffffffffffffffffffffffffffffffffffff1681526020019081526020016000208054806130c8577f4e487b7100000000000000000000000000000000000000000000000000000000600052603160045260246000fd5b60019003818190600052602060002001600090559055600f60008473ffffffffffffffffffffffffffffffffffffffff1673ffffffffffffffffffffffffffffffffffffffff16815260200190815260200160002082908060018154018082558091505060019003906000526020600020016000909190919091505550505050565b6000600760009054906101000a900473ffffffffffffffffffffffffffffffffffffffff16905081600760006101000a81548173ffffffffffffffffffffffffffffffffffffffff021916908373ffffffffffffffffffffffffffffffffffffffff1602179055508173ffffffffffffffffffffffffffffffffffffffff168173ffffffffffffffffffffffffffffffffffffffff167f8be0079c531659141344cd1fd0a4f28419497f9722a3daafe3b4186f6b6457e060405160405180910390a35050565b600081600001549050919050565b60606000821415613266576040518060400160405280600181526020017f300000000000000000000000000000000000000000000000000000000000000081525090506133c6565b600082905060005b60008214613298578080613281906153a4565b915050600a8261329191906151cc565b915061326e565b60008167ffffffffffffffff8111156132da577f4e487b7100000000000000000000000000000000000000000000000000000000600052604160045260246000fd5b6040519080825280601f01601f19166020018201604052801561330c5781602001600182028036833780820191505090505b5090505b600085146133bf576001826133259190615257565b9150600a8561333491906153ed565b60306133409190615176565b60f81b81838151811061337c577f4e487b7100000000000000000000000000000000000000000000000000000000600052603260045260246000fd5b60200101907effffffffffffffffffffffffffffffffffffffffffffffffffffffffffffff1916908160001a905350600a856133b891906151cc565b9450613310565b8093505050505b919050565b60606000825114156133ee57604051806020016040528060008152509050613550565b6000604051806060016040528060408152602001615d17604091399050600060036002855161341d9190615176565b61342791906151cc565b600461343391906151fd565b67ffffffffffffffff811115613472577f4e487b7100000000000000000000000000000000000000000000000000000000600052604160045260246000fd5b6040519080825280601f01601f1916602001820160405280156134a45781602001600182028036833780820191505090505b509050600182016020820185865187015b80821015613510576003820191508151603f8160121c168501518453600184019350603f81600c1c168501518453600184019350603f8160061c168501518453600184019350603f81168501518453600184019350506134b5565b505060038651066001811461352c576002811461353f57613547565b603d6001830353603d6002830353613547565b603d60018303535b50505080925050505b919050565b61356f8282604051806020016040528060008152506138b7565b5050565b61357c8261299d565b6135bb576040517f08c379a00000000000000000000000000000000000000000000000000000000081526004016135b290614eab565b60405180910390fd5b806006600084815260200190815260200160002090805190602001906135e2929190613ca6565b505050565b6001816000016000828254019250508190555050565b8173ffffffffffffffffffffffffffffffffffffffff168373ffffffffffffffffffffffffffffffffffffffff16141561366c576040517f08c379a000000000000000000000000000000000000000000000000000000000815260040161366390614deb565b60405180910390fd5b80600560008573ffffffffffffffffffffffffffffffffffffffff1673ffffffffffffffffffffffffffffffffffffffff16815260200190815260200160002060008473ffffffffffffffffffffffffffffffffffffffff1673ffffffffffffffffffffffffffffffffffffffff16815260200190815260200160002060006101000a81548160ff0219169083151502179055508173ffffffffffffffffffffffffffffffffffffffff168373ffffffffffffffffffffffffffffffffffffffff167f17307eab39ab6107e8899845ad3d59bd9653f200f220920489ca2b5937696c318360405161375d9190614cee565b60405180910390a3505050565b613775848484612ba8565b61378184848484613912565b6137c0576040517f08c379a00000000000000000000000000000000000000000000000000000000081526004016137b790614d4b565b60405180910390fd5b50505050565b606060405180602001604052806000815250905090565b60606137e88261299d565b613827576040517f08c379a000000000000000000000000000000000000000000000000000000000815260040161381e90614f6b565b60405180910390fd5b60006138316137c6565b90506000815111613851576040518060200160405280600081525061387c565b8061385b8461321e565b60405160200161386c929190614a70565b6040516020818303038152906040525b915050919050565b60008151905060006a636f6e736f6c652e6c6f679050602083016000808483855afa5050505050565b505050565b505050565b6138c18383613aa9565b6138ce6000848484613912565b61390d576040517f08c379a000000000000000000000000000000000000000000000000000000000815260040161390490614d4b565b60405180910390fd5b505050565b60006139338473ffffffffffffffffffffffffffffffffffffffff16613c83565b15613a9c578373ffffffffffffffffffffffffffffffffffffffff1663150b7a0261395c612a09565b8786866040518563ffffffff1660e01b815260040161397e9493929190614c80565b602060405180830381600087803b15801561399857600080fd5b505af19250505080156139c957506040513d601f19601f820116820180604052508101906139c69190614249565b60015b613a4c573d80600081146139f9576040519150601f19603f3d011682016040523d82523d6000602084013e6139fe565b606091505b50600081511415613a44576040517f08c379a0000000000000000000000000000000000000000000000000000000008152600401613a3b90614d4b565b60405180910390fd5b805181602001fd5b63150b7a0260e01b7bffffffffffffffffffffffffffffffffffffffffffffffffffffffff1916817bffffffffffffffffffffffffffffffffffffffffffffffffffffffff191614915050613aa1565b600190505b949350505050565b600073ffffffffffffffffffffffffffffffffffffffff168273ffffffffffffffffffffffffffffffffffffffff161415613b19576040517f08c379a0000000000000000000000000000000000000000000000000000000008152600401613b1090614eeb565b60405180910390fd5b613b228161299d565b15613b62576040517f08c379a0000000000000000000000000000000000000000000000000000000008152600401613b5990614dab565b60405180910390fd5b613b6e600083836138ad565b6001600360008473ffffffffffffffffffffffffffffffffffffffff1673ffffffffffffffffffffffffffffffffffffffff1681526020019081526020016000206000828254613bbe9190615176565b92505081905550816002600083815260200190815260200160002060006101000a81548173ffffffffffffffffffffffffffffffffffffffff021916908373ffffffffffffffffffffffffffffffffffffffff160217905550808273ffffffffffffffffffffffffffffffffffffffff16600073ffffffffffffffffffffffffffffffffffffffff167fddf252ad1be2c89b69c2b068fc378daa952ba7f163c4a11628f55a4df523b3ef60405160405180910390a4613c7f600083836138b2565b5050565b6000808273ffffffffffffffffffffffffffffffffffffffff163b119050919050565b828054613cb290615341565b90600052602060002090601f016020900481019282613cd45760008555613d1b565b82601f10613ced57805160ff1916838001178555613d1b565b82800160010185558215613d1b579182015b82811115613d1a578251825591602001919060010190613cff565b5b509050613d289190613d2c565b5090565b5b80821115613d45576000816000905550600101613d2d565b5090565b6000613d5c613d578461502b565b615006565b90508083825260208201905082856020860282011115613d7b57600080fd5b60005b85811015613dc557813567ffffffffffffffff811115613d9d57600080fd5b808601613daa8982613f10565b85526020850194506020840193505050600181019050613d7e565b5050509392505050565b6000613de2613ddd84615057565b615006565b90508083825260208201905082856020860282011115613e0157600080fd5b60005b85811015613e4b57813567ffffffffffffffff811115613e2357600080fd5b808601613e308982613fa3565b85526020850194506020840193505050600181019050613e04565b5050509392505050565b6000613e68613e6384615083565b615006565b905082815260208101848484011115613e8057600080fd5b613e8b8482856152ff565b509392505050565b6000613ea6613ea1846150b4565b615006565b905082815260208101848484011115613ebe57600080fd5b613ec98482856152ff565b509392505050565b600081359050613ee081615cba565b92915050565b600082601f830112613ef757600080fd5b8135613f07848260208601613d49565b91505092915050565b600082601f830112613f2157600080fd5b8135613f31848260208601613dcf565b91505092915050565b600081359050613f4981615cd1565b92915050565b600081359050613f5e81615ce8565b92915050565b600081519050613f7381615ce8565b92915050565b600082601f830112613f8a57600080fd5b8135613f9a848260208601613e55565b91505092915050565b600082601f830112613fb457600080fd5b8135613fc4848260208601613e93565b91505092915050565b600081359050613fdc81615cff565b92915050565b600060208284031215613ff457600080fd5b600061400284828501613ed1565b91505092915050565b6000806040838503121561401e57600080fd5b600061402c85828601613ed1565b925050602061403d85828601613ed1565b9150509250929050565b60008060006060848603121561405c57600080fd5b600061406a86828701613ed1565b935050602061407b86828701613ed1565b925050604061408c86828701613fcd565b9150509250925092565b600080600080608085870312156140ac57600080fd5b60006140ba87828801613ed1565b94505060206140cb87828801613ed1565b93505060406140dc87828801613fcd565b925050606085013567ffffffffffffffff8111156140f957600080fd5b61410587828801613f79565b91505092959194509250565b6000806040838503121561412457600080fd5b600061413285828601613ed1565b925050602061414385828601613f3a565b9150509250929050565b6000806040838503121561416057600080fd5b600061416e85828601613ed1565b925050602061417f85828601613fcd565b9150509250929050565b60008060006060848603121561419e57600080fd5b600084013567ffffffffffffffff8111156141b857600080fd5b6141c486828701613f10565b935050602084013567ffffffffffffffff8111156141e157600080fd5b6141ed86828701613f10565b925050604084013567ffffffffffffffff81111561420a57600080fd5b61421686828701613ee6565b9150509250925092565b60006020828403121561423257600080fd5b600061424084828501613f4f565b91505092915050565b60006020828403121561425b57600080fd5b600061426984828501613f64565b91505092915050565b60008060006060848603121561428757600080fd5b600084013567ffffffffffffffff8111156142a157600080fd5b6142ad86828701613fa3565b935050602084013567ffffffffffffffff8111156142ca57600080fd5b6142d686828701613fa3565b925050604084013567ffffffffffffffff8111156142f357600080fd5b6142ff86828701613f10565b9150509250925092565b60006020828403121561431b57600080fd5b600061432984828501613fcd565b91505092915050565b6000806000806080858703121561434857600080fd5b600061435687828801613fcd565b945050602085013567ffffffffffffffff81111561437357600080fd5b61437f87828801613fa3565b935050604085013567ffffffffffffffff81111561439c57600080fd5b6143a887828801613fa3565b925050606085013567ffffffffffffffff8111156143c557600080fd5b6143d187828801613f10565b91505092959194509250565b600080604083850312156143f057600080fd5b60006143fe85828601613fcd565b925050602061440f85828601613fcd565b9150509250929050565b60006144258383614a52565b60208301905092915050565b61443a8161528b565b82525050565b600061444b8261510a565b6144558185615138565b9350614460836150e5565b8060005b838110156144915781516144788882614419565b97506144838361512b565b925050600181019050614464565b5085935050505092915050565b6144a78161529d565b82525050565b60006144b882615115565b6144c28185615149565b93506144d281856020860161530e565b6144db816154da565b840191505092915050565b60006144f182615120565b6144fb818561515a565b935061450b81856020860161530e565b614514816154da565b840191505092915050565b600061452a82615120565b614534818561516b565b935061454481856020860161530e565b80840191505092915050565b6000815461455d81615341565b614567818661516b565b945060018216600081146145825760018114614593576145c6565b60ff198316865281860193506145c6565b61459c856150f5565b60005b838110156145be5781548189015260018201915060208101905061459f565b838801955050505b50505092915050565b60006145dc60108361515a565b91506145e7826154eb565b602082019050919050565b60006145ff60328361515a565b915061460a82615514565b604082019050919050565b600061462260268361515a565b915061462d82615563565b604082019050919050565b600061464560258361515a565b9150614650826155b2565b604082019050919050565b6000614668601c8361515a565b915061467382615601565b602082019050919050565b600061468b60088361516b565b91506146968261562a565b600882019050919050565b60006146ae60168361516b565b91506146b982615653565b601682019050919050565b60006146d160188361516b565b91506146dc8261567c565b601882019050919050565b60006146f460248361515a565b91506146ff826156a5565b604082019050919050565b600061471760198361515a565b9150614722826156f4565b602082019050919050565b600061473a600c8361516b565b91506147458261571d565b600c82019050919050565b600061475d607f8361516b565b915061476882615746565b607f82019050919050565b6000614780602c8361515a565b915061478b826157e1565b604082019050919050565b60006147a360108361515a565b91506147ae82615830565b602082019050919050565b60006147c660388361515a565b91506147d182615859565b604082019050919050565b60006147e9602a8361515a565b91506147f4826158a8565b604082019050919050565b600061480c60298361515a565b9150614817826158f7565b604082019050919050565b600061482f602e8361515a565b915061483a82615946565b604082019050919050565b600061485260178361515a565b915061485d82615995565b602082019050919050565b600061487560158361516b565b9150614880826159be565b601582019050919050565b6000614898600e8361516b565b91506148a3826159e7565b600e82019050919050565b60006148bb60208361515a565b91506148c682615a10565b602082019050919050565b60006148de60318361515a565b91506148e982615a39565b604082019050919050565b6000614901602c8361515a565b915061490c82615a88565b604082019050919050565b600061492460208361515a565b915061492f82615ad7565b602082019050919050565b6000614947602f8361515a565b915061495282615b00565b604082019050919050565b600061496a60038361516b565b915061497582615b4f565b600382019050919050565b600061498d60218361515a565b915061499882615b78565b604082019050919050565b60006149b060188361516b565b91506149bb82615bc7565b601882019050919050565b60006149d3601d8361516b565b91506149de82615bf0565b601d82019050919050565b60006149f660318361515a565b9150614a0182615c19565b604082019050919050565b6000614a1960108361515a565b9150614a2482615c68565b602082019050919050565b6000614a3c60028361516b565b9150614a4782615c91565b600282019050919050565b614a5b816152f5565b82525050565b614a6a816152f5565b82525050565b6000614a7c828561451f565b9150614a88828461451f565b91508190509392505050565b6000614aa0828561451f565b9150614aab826146c4565b9150614ab7828461451f565b9150614ac28261467e565b91508190509392505050565b6000614ada828561451f565b9150614ae5826149a3565b9150614af1828461451f565b9150614afc8261467e565b91508190509392505050565b6000614b14828561451f565b9150614b1f82614a2f565b9150614b2b828461451f565b91508190509392505050565b6000614b43828c614550565b9150614b4f828b61451f565b9150614b5b828a614550565b9150614b67828961451f565b9150614b738288614550565b9150614b7f828761451f565b9150614b8b8286614550565b9150614b97828561451f565b9150614ba38284614550565b91508190509a9950505050505050505050565b6000614bc1826146a1565b9150614bcd828861451f565b9150614bd882614750565b9150614be4828761451f565b9150614bef82614868565b9150614bfb828661451f565b9150614c068261472d565b9150614c12828561451f565b9150614c1d8261488b565b9150614c29828461451f565b9150614c348261495d565b91508190509695505050505050565b6000614c4e826149c6565b9150614c5a828461451f565b915081905092915050565b6000602082019050614c7a6000830184614431565b92915050565b6000608082019050614c956000830187614431565b614ca26020830186614431565b614caf6040830185614a61565b8181036060830152614cc181846144ad565b905095945050505050565b60006020820190508181036000830152614ce68184614440565b905092915050565b6000602082019050614d03600083018461449e565b92915050565b60006020820190508181036000830152614d2381846144e6565b905092915050565b60006020820190508181036000830152614d44816145cf565b9050919050565b60006020820190508181036000830152614d64816145f2565b9050919050565b60006020820190508181036000830152614d8481614615565b9050919050565b60006020820190508181036000830152614da481614638565b9050919050565b60006020820190508181036000830152614dc48161465b565b9050919050565b60006020820190508181036000830152614de4816146e7565b9050919050565b60006020820190508181036000830152614e048161470a565b9050919050565b60006020820190508181036000830152614e2481614773565b9050919050565b60006020820190508181036000830152614e4481614796565b9050919050565b60006020820190508181036000830152614e64816147b9565b9050919050565b60006020820190508181036000830152614e84816147dc565b9050919050565b60006020820190508181036000830152614ea4816147ff565b9050919050565b60006020820190508181036000830152614ec481614822565b9050919050565b60006020820190508181036000830152614ee481614845565b9050919050565b60006020820190508181036000830152614f04816148ae565b9050919050565b60006020820190508181036000830152614f24816148d1565b9050919050565b60006020820190508181036000830152614f44816148f4565b9050919050565b60006020820190508181036000830152614f6481614917565b9050919050565b60006020820190508181036000830152614f848161493a565b9050919050565b60006020820190508181036000830152614fa481614980565b9050919050565b60006020820190508181036000830152614fc4816149e9565b9050919050565b60006020820190508181036000830152614fe481614a0c565b9050919050565b60006020820190506150006000830184614a61565b92915050565b6000615010615021565b905061501c8282615373565b919050565b6000604051905090565b600067ffffffffffffffff821115615046576150456154ab565b5b602082029050602081019050919050565b600067ffffffffffffffff821115615072576150716154ab565b5b602082029050602081019050919050565b600067ffffffffffffffff82111561509e5761509d6154ab565b5b6150a7826154da565b9050602081019050919050565b600067ffffffffffffffff8211156150cf576150ce6154ab565b5b6150d8826154da565b9050602081019050919050565b6000819050602082019050919050565b60008190508160005260206000209050919050565b600081519050919050565b600081519050919050565b600081519050919050565b6000602082019050919050565b600082825260208201905092915050565b600082825260208201905092915050565b600082825260208201905092915050565b600081905092915050565b6000615181826152f5565b915061518c836152f5565b9250827fffffffffffffffffffffffffffffffffffffffffffffffffffffffffffffffff038211156151c1576151c061541e565b5b828201905092915050565b60006151d7826152f5565b91506151e2836152f5565b9250826151f2576151f161544d565b5b828204905092915050565b6000615208826152f5565b9150615213836152f5565b9250817fffffffffffffffffffffffffffffffffffffffffffffffffffffffffffffffff048311821515161561524c5761524b61541e565b5b828202905092915050565b6000615262826152f5565b915061526d836152f5565b9250828210156152805761527f61541e565b5b828203905092915050565b6000615296826152d5565b9050919050565b60008115159050919050565b60007fffffffff0000000000000000000000000000000000000000000000000000000082169050919050565b600073ffffffffffffffffffffffffffffffffffffffff82169050919050565b6000819050919050565b82818337600083830152505050565b60005b8381101561532c578082015181840152602081019050615311565b8381111561533b576000848401525b50505050565b6000600282049050600182168061535957607f821691505b6020821081141561536d5761536c61547c565b5b50919050565b61537c826154da565b810181811067ffffffffffffffff8211171561539b5761539a6154ab565b5b80604052505050565b60006153af826152f5565b91507fffffffffffffffffffffffffffffffffffffffffffffffffffffffffffffffff8214156153e2576153e161541e565b5b600182019050919050565b60006153f8826152f5565b9150615403836152f5565b9250826154135761541261544d565b5b828206905092915050565b7f4e487b7100000000000000000000000000000000000000000000000000000000600052601160045260246000fd5b7f4e487b7100000000000000000000000000000000000000000000000000000000600052601260045260246000fd5b7f4e487b7100000000000000000000000000000000000000000000000000000000600052602260045260246000fd5b7f4e487b7100000000000000000000000000000000000000000000000000000000600052604160045260246000fd5b6000601f19601f8301169050919050565b7f496e636f727265637420416d6f756e7400000000000000000000000000000000600082015250565b7f4552433732313a207472616e7366657220746f206e6f6e20455243373231526560008201527f63656976657220696d706c656d656e7465720000000000000000000000000000602082015250565b7f4f776e61626c653a206e6577206f776e657220697320746865207a65726f206160008201527f6464726573730000000000000000000000000000000000000000000000000000602082015250565b7f4552433732313a207472616e736665722066726f6d20696e636f72726563742060008201527f6f776e6572000000000000000000000000000000000000000000000000000000602082015250565b7f4552433732313a20746f6b656e20616c7265616479206d696e74656400000000600082015250565b7f3c2f747370616e3e000000000000000000000000000000000000000000000000600082015250565b7f7b226e616d65223a202252657374496e436861696e2d00000000000000000000600082015250565b7f3c747370616e20783d27313030272064793d2731656d273e0000000000000000600082015250565b7f4552433732313a207472616e7366657220746f20746865207a65726f2061646460008201527f7265737300000000000000000000000000000000000000000000000000000000602082015250565b7f4552433732313a20617070726f766520746f2063616c6c657200000000000000600082015250565b7f222c202279656172223a20220000000000000000000000000000000000000000600082015250565b7f222c20226465736372697074696f6e223a202252657374496e436861696e204e60008201527f4654202d205361766520746865206e616d6520616e6420746865206d656d6f7260208201527f79206f6e20426c6f636b636861696e20466f72657665722e222c2022696d616760408201527f65223a2022646174613a696d6167652f7376672b786d6c3b6261736536342c00606082015250565b7f4552433732313a206f70657261746f7220717565727920666f72206e6f6e657860008201527f697374656e7420746f6b656e0000000000000000000000000000000000000000602082015250565b7f5965617220697320746f6f206c6f6e6700000000000000000000000000000000600082015250565b7f4552433732313a20617070726f76652063616c6c6572206973206e6f74206f7760008201527f6e6572206e6f7220617070726f76656420666f7220616c6c0000000000000000602082015250565b7f4552433732313a2062616c616e636520717565727920666f7220746865207a6560008201527f726f206164647265737300000000000000000000000000000000000000000000602082015250565b7f4552433732313a206f776e657220717565727920666f72206e6f6e657869737460008201527f656e7420746f6b656e0000000000000000000000000000000000000000000000602082015250565b7f45524337323155524953746f726167653a2055524920736574206f66206e6f6e60008201527f6578697374656e7420746f6b656e000000000000000000000000000000000000602082015250565b7f4d656d6f7279205465787420697320746f6f206c6f6e67000000000000000000600082015250565b7f222c202264617461223a207b226e616d65223a20220000000000000000000000600082015250565b7f222c20226d656d6f7279223a2022000000000000000000000000000000000000600082015250565b7f4552433732313a206d696e7420746f20746865207a65726f2061646472657373600082015250565b7f45524337323155524953746f726167653a2055524920717565727920666f722060008201527f6e6f6e6578697374656e7420746f6b656e000000000000000000000000000000602082015250565b7f4552433732313a20617070726f76656420717565727920666f72206e6f6e657860008201527f697374656e7420746f6b656e0000000000000000000000000000000000000000602082015250565b7f4f776e61626c653a2063616c6c6572206973206e6f7420746865206f776e6572600082015250565b7f4552433732314d657461646174613a2055524920717565727920666f72206e6f60008201527f6e6578697374656e7420746f6b656e0000000000000000000000000000000000602082015250565b7f227d7d0000000000000000000000000000000000000000000000000000000000600082015250565b7f4552433732313a20617070726f76616c20746f2063757272656e74206f776e6560008201527f7200000000000000000000000000000000000000000000000000000000000000602082015250565b7f3c747370616e20783d27313030272064793d2730656d273e0000000000000000600082015250565b7f646174613a6170706c69636174696f6e2f6a736f6e3b6261736536342c000000600082015250565b7f4552433732313a207472616e736665722063616c6c6572206973206e6f74206f60008201527f776e6572206e6f7220617070726f766564000000000000000000000000000000602082015250565b7f4e616d6520697320746f6f206c6f6e6700000000000000000000000000000000600082015250565b7f7c7c000000000000000000000000000000000000000000000000000000000000600082015250565b615cc38161528b565b8114615cce57600080fd5b50565b615cda8161529d565b8114615ce557600080fd5b50565b615cf1816152a9565b8114615cfc57600080fd5b50565b615d08816152f5565b8114615d1357600080fd5b5056fe4142434445464748494a4b4c4d4e4f505152535455565758595a6162636465666768696a6b6c6d6e6f707172737475767778797a303132333435363738392b2fa264697066735822122019d651454ee47b84bbf2a46c00ff3ee9c37fa39714e354a44b6daba018e6d1d864736f6c634300080400333c737667206865696768743d27323030272077696474683d273230302720786d6c6e733d27687474703a2f2f7777772e77332e6f72672f323030302f737667273e3c726563742066696c6c3d27626c61636b2720783d27302720793d2730272077696474683d2732303027206865696768743d27323030273e3c2f726563743e3c673e3c7376672076657273696f6e3d27312e302720786d6c6e733d27687474703a2f2f7777772e77332e6f72672f323030302f737667272077696474683d2731392e303030303030707427206865696768743d2732352e3030303030307074272076696577426f783d27302030203931322e30303030303020313238302e30303030303027207072657365727665417370656374526174696f3d27784d6964594d6964206d656574273e3c67207472616e73666f726d3d277472616e736c61746528302e3030303030302c313238302e30303030303029207363616c6528302e3130303030302c2d302e31303030303029272066696c6c3d27726762283231362c3231352c3231352927207374726f6b653d276e6f6e65273e3c7061746820643d274d3433363720313234383920632d343735202d3233202d373834202d3937202d31313237202d323639202d343230202d323130202d383536202d353934202d31303937202d393637202d3232202d3333202d3534202d3739202d3731202d313030202d313235202d313538202d333139202d353632202d343237202d383837202d3734202d323233202d3939202d333236202d313430202d353737202d3538202d333537202d3638202d353433202d3339202d373337203534202d33363320313437202d36383920323939202d31303338203639202d31353820313935202d34303520323631202d353039203331202d343920313037202d31383120313639202d32393120313131202d31393920323735202d34363520343035202d36353920313833202d32373420363839202d3130303120373534202d31303835206c3734202d3935202d3235202d353020632d3134202d3237202d3638202d313236202d313231202d323230202d3532202d3933202d313936202d333636202d333139202d363035202d313234202d323339202d323635202d353130202d333135202d363032202d313034202d313935202d333431202d363837202d343335202d393033202d3336202d3832202d3839202d323034202d313138202d323730202d3531202d313137202d323235202d363033202d323235202d3633302030202d37203538202d383420313238202d313732203731202d383720313533202d31393220313833202d323333203330202d343220313131202d31353020313831202d323430203730202d393120313931202d32343820323639202d33353020363035202d37383820363031202d37383420363137202d37363420372031312034372038372038372031363920343020383320323936203630302035373020313135302032373320353530203538302031313637203638302031333730203130312032303420313933203337392032303520333930203232203230203232203230203433202d39203234202d333120323338202d33373920333232202d353231203239202d343920313731202d32383620333135202d35323520313435202d32333920333534202d35383620343635202d37373020313131202d31383420323933202d34383620343035202d36373020313131202d31383420323138202d33363120323337202d333932203139202d3332203337202d3538203431202d3538203420302032302032312033372034382031362032362031313920313834203232392033353220313039203136382033303020343633203432342036353520313233203139332032393120343531203337332035373520383220313234203134392032333520313439203234352030203131202d3130203336202d3231203535202d3132203139202d353420313039202d393420323030202d31313520323630202d31333520333031202d32393620363132202d33353420363832202d3735302031333238202d313337362032323433202d3439203732202d393420313434202d31303020313632202d3131203331202d352034322032343420343330203134312032313920333234203530342034303820363333203137382032373420333630203536372034333220363935203739203134312032333720343631203239322035393120313831203433322032393520393433203330362031333639203420313535203220313835202d323520333339202d31313320363432202d3332302031313335202d3730352031363831202d32303820323935202d33333120343335202d34393020353536202d313031203737202d34313420323833202d35323220333434202d32353420313431202d35363820323532202d38343820323939202d313239203232202d333734203436202d343437203434202d33352030202d313334202d35202d323231202d397a206d353838202d313635342063333732202d343420373030202d3135372031303330202d33353520313238202d373720313937202d31323920323230202d313634203133202d32302039202d3338202d3439202d323032202d313830202d353037202d333731202d393137202d363237202d31333436202d313236202d323130202d343737202d373339202d363939202d31303533202d3930202d313236202d313939202d323833202d323432202d333437202d3433202d3635202d3832202d313138202d3836202d313138202d342031202d31323420313437202d32363720333236202d31343320313830202d33313620333934202d33383420343738202d31343320313735202d31373120323135202d33353320353131202d32393020343731202d34393120383932202d3637332031343039202d363320313738202d373520323232202d363720323430203235203536203239352032343520343838203334342033363620313836203638362032363320313232342032393620313034203620333534202d3420343835202d31397a272f3e3c2f673e3c2f7376673e3c2f673e3c7465787420783d273130302720793d273835272066696c6c3d2777686974652720746578742d616e63686f723d276d6964646c652720616c69676e6d656e742d626173656c696e653d2763656e7472616c2720666f6e742d66616d696c793d27416c6567726579612720666f6e742d73697a653d2732302720666f6e742d7374796c653d276e6f726d616c273e3c2f746578743e3c7465787420783d273139352720793d27313933272066696c6c3d2777686974652720746578742d616e63686f723d27656e642720616c69676e6d656e742d626173656c696e653d2763656e7472616c2720666f6e742d66616d696c793d274c61746f2720666f6e742d73697a653d27382720666f6e742d7374796c653d27626f6c64273e233c2f746578743e3c7465787420783d273130302720793d27313035272066696c6c3d27726762283137362c3137302c313730292720746578742d616e63686f723d276d6964646c652720616c69676e6d656e742d626173656c696e653d2763656e7472616c2720666f6e742d66616d696c793d274c61746f2720666f6e742d73697a653d2731322720666f6e742d7374796c653d276e6f726d616c273e3c2f746578743e3c7465787420783d273130302720793d27313330272066696c6c3d27726762283231362c3231352c323135292720746578742d616e63686f723d276d6964646c652720616c69676e6d656e742d626173656c696e653d2763656e7472616c2720666f6e742d66616d696c793d274c61746f2720666f6e742d73697a653d2731342720666f6e742d7374796c653d276e6f726d616c273e",
  "linkReferences": {},
  "deployedLinkReferences": {}
}